:020000040000FA
:10000000600200104D010000550100005701000082
:10001000590100005B0100005D01000000000000CC
:100020000000000000000000000000005F01000070
:100030006101000000000000630100006501000094
:100040006701000067010000670100006701000010
:100050006701000067010000670100006701000000
:1000600067010000670100006701000067010000F0
:1000700067010000670100006701000067010000E0
:1000800067010000670100006701000067010000D0
:1000900067010000670100006701000067010000C0
:1000A00067010000670100006701000067010000B0
:1000B00067010000670100006701000067010000A0
:1000C00067010000670100006701000000F002F80E
:1000D00000F02CF80AA090E8000C82448344AAF1B6
:1000E0000107DA4501D100F021F8AFF2090EBAE8B4
:1000F0000F0013F0010F18BFFB1A43F0010318475C
:100100001C0F00002C0F00000023002400250026F7
:10011000103A28BF78C1FBD8520728BF30C148BF6A
:100120000B6070471FB51FBD10B510BD00F04EF835
:100130001146FFF7F7FF00F05FFA00F06CF803B428
:10014000FFF7F2FF03BC00F073F800000948804796
:1001500009480047FEE7FEE7FEE7FEE7FEE7FEE7A9
:10016000FEE7FEE7FEE7FEE704480549034A054BC4
:100170007047000001030000CD0000006000001087
:10018000600200106000001010B5431C02E010F87F
:10019000011B71B18107FAD14FF0013202C88C1AEC
:1001A0008C4314EAC211F9D0C01A0A0603D0C01E4B
:1001B00010BDC01A10BD0A0401D0801E10BD090276
:1001C000FCD0401E10BD704770477047754600F068
:1001D0002BF8AE4605006946534620F007008546D9
:1001E00018B020B5FFF7C0FFBDE820404FF0000673
:1001F0004FF000074FF000084FF0000B21F007010F
:10020000AC46ACE8C009ACE8C009ACE8C009ACE851
:10021000C0098D46704710B50446AFF300802046F4
:10022000BDE81040FFF78BBF00487047000000108A
:1002300001491820ABBEFEE726000200704700000F
:1002400010B504460F20164908740846C06940F4EA
:100250000070C8610846806940F480708861084673
:100260000475022000F02AF84FF480700C49C86130
:100270000846806940F4807088610F210848417405
:100280002007000E0649087500200861022000F0D2
:1002900015F80348C06940F480700149C86110BD79
:1002A00000C0092010B5044603E014F8010B00F06B
:1002B00075F920780028F8D110BD00000D490968B3
:1002C00041F002010B4AC43AC2F8C41046F2A71129
:1002D0004FF04022D160022151600121516000BFE6
:1002E0004FF0402189688142FAD300214FF040222B
:1002F00051607047C4C00F4000000000FFFFFFFFC7
:1003000020204B4908604B48D0F8A00100F02000A5
:1003100030B100BF4648006800F040000028F9D026
:10032000032043499C39086000204249C1F8A801D4
:100330003F490C31086001203D49943908603E482E
:100340003C4984310860AA203A498C310860552024
:1003500008600120374980310860AA2035498C3176
:10036000086055203349C1F88C0000BF31488830FF
:10037000006800F080600028F8D003202D4980310B
:100380000860AA202B49C1F88C00552029498C31DE
:10039000086000BF27488830006800F04070B0F166
:1003A000407FF7D123202349A4310860AA202149A6
:1003B000C1F8AC0055201F49AC31086001201D492F
:1003C000A0310860AA201B49AC31086055201949AA
:1003D000C1F8AC0000BF1748A830006800F4806086
:1003E0000028F8D003201349A0310860AA20114941
:1003F000C1F8AC0055200F49AC31086000BF0D4872
:10040000A830006800F44070B0F5407FF7D10B4889
:100410000849C431086000200649C1F8C8010846EF
:10042000006820F4704040F480400860704700008D
:10043000A0C10F4000C00F4063000500DE87280404
:100440002DE9F05F04460D462046294600F0F6F9F6
:100450008346584600F021FA804622462B4600F09B
:10046000F9FA064600F004F98246584600F02CF8E6
:100470002E2000F093F8002213462046294600F073
:10048000B3FA0AD20F49504600F0FCFC074600F0D0
:10049000C5FC064600F018F812E00022134620467C
:1004A000294600F011FA0BD28AF00048054940466F
:1004B00000F0E8FC074600F0B1FC064600F004F846
:1004C000BDE8F09F0050C3472DE9F04399B00446C2
:1004D0000025A9463CB930200DF80500681CC5B2BE
:1004E00000200DF80500002C02DA64424FF00109EB
:1004F00010E00A2094FBF0F100FB1140C7B207F1B5
:100500003000C2B22846691CCDB20DF800200A2086
:1005100094FBF0F4002CECD1B9F1010F05D12D22A0
:100520002846691CCDB20DF8002000222846691C1F
:10053000CDB20DF800206846FFF726FE00F0FF0858
:10054000A8F1010604E01DF8060000F027F8761E69
:10055000002EF8DA19B0BDE8F083000010B50E489F
:10056000006840F47C700C4908600220FFF768FEC8
:100570002820FFF765FE0E20FFF762FE0620FFF73A
:100580005FFE0120FFF75CFE8020FFF759FE0A2086
:10059000FFF794FE10BD000000C0092010B504460E
:1005A0000F20144908740846806940F4407088613F
:1005B00004F0F00008750220FFF780FE4FF4807011
:1005C0000C49C8610846806940F4807088610F2139
:1005D000084841742007000E06490875002008618C
:1005E0000220FFF76BFE0348C06940F480700149A8
:1005F000C86110BD00C00920FFF782FEFFF7AEFF03
:10060000134C204600F026FC0646124900F044FB3D
:1006100005461CE010A0FFF745FE284600F010FB41
:100620000646FFF70DFF4FF47A70FFF747FEC02034
:10063000FFF706FE0AA0FFF735FE2046FFF744FF4E
:100640004FF47A70FFF73AFE0120FFF7F9FDE1E77A
:10065000CCFEFFFF000040415052414E4A414C0049
:10066000534852495641535441564120000000001E
:1006700021F00042A2F16052B2F5801F01F0004368
:1006800028BFD2F17F6C0BD95FEA001C43EAC2029B
:1006900042EB507018BF704728BF20F00100704730
:1006A000B2F5801FBCBF184670474FEA410C1CF5DD
:1006B000001F02D2084600F0ACBC70B500F040F953
:1006C00000000089FFF7F6BF4FF00040A0F5800062
:1006D0007047000010B591EA030F48BF83F0004354
:1006E00000F1CC81841A71EB030C05D2121943EB93
:1006F0000C03001B61EB0C01DFF824E14FEA1154FD
:10070000A4EB135C1EEA430F18BF9EEA445F73D04C
:1007100023EA0E03DCF1200E21EA045143F4801396
:1007200032D322FA0CFE10EB0E0023FA0CFE41EB42
:100730000E01CCF1200E03FA0EFE10EB0E0051F16B
:100740000001B1F5801FCCF1200E32D201EB045133
:1007500012FA0EF2BDE8104058BF7047401C38BF77
:100760005FEA420218BF7047002814BF20F0010062
:1007700041F100014FEA410313F5001F38BF7047F4
:10078000A1F1C04100F02AB9012A43EB0302ACF108
:10079000200CDCF11F0E32BF4FF0000E23FA0CF3D9
:1007A00010EB030041EB0451B4EB115FD0D0A1EB8F
:1007B000045101F5801149085FEA300001EB045152
:1007C0000ED350F1000038BF12FA0EFE08D1BDE87A
:1007D0001040C9E7401C38BF5FEA4202CAD1C3E7F4
:1007E000BDE810404FEA410313F5001F38BF7047C2
:1007F000A1F1C04100F0F2B89EEA445F08D011EACE
:100800005E0FBDE8104004BF01F0004100207047BA
:10081000BDE8104070B500F093F800BF64FBBE3E29
:100820000000E0FF491058BFC1F140415B1058BFC4
:10083000C3F140438B42EFF3008070474FEA41031E
:100840004FEA5353A3F58063D3F11E03C8BFD3F11E
:10085000210C0CDD4FF0004242EAC12242EA505224
:1008600032FA03FC8CEAE17CACEBE1707047102BB0
:10087000C4BF0020704703F5787CBCF1FF3F04D073
:100880006FF0004282EA2100704770B500F058F81E
:100890004992248000207047F2E710F0004248BFE0
:1008A0004042B0FA80F310FA03F10AD0C3F11D03FD
:1008B00003F580634FEA415002EB035202EBD12172
:1008C00070474FF00000704751EA030C17D41CF535
:1008D000801F58BFBCF5801F00F10680994218BFE9
:1008E000704708BF9042704707D711F5801F58BF67
:1008F00013F5801F19D499427047894270471CF53F
:10090000801F08D5BCF5801FF7D58B4218BF7047F4
:1009100008BF824270474FF4001C1CEB410F38BFE8
:100920001CEB430F01D28B42704770B500F008F802
:10093000922449004FF000514FF08053FFF772BFEF
:100940000EF1020E2EF0030E5EF8046B364205D453
:10095000012A43EB030515F5001F12D8012841EBCE
:10096000010C1CF5001F0CD80ED14FEAD17C15F5F7
:10097000001F0CEB4C0C0CF1020C08BF4CEBD37CB1
:1009800004E04FF0080C01E04FEAD37C0CEB4C057F
:1009900026FA05F606F00706B6F1040C06D20EEBB1
:1009A000860CBDE870404CF0010C6047DFE80CF0AD
:1009B000090B02024FF000414FF00000A1F50021A9
:1009C00070BD19461046012851EB010418BFD4F53B
:1009D000001484BF002001F0004170BD0808A0F59C
:1009E00000114FEA3101704753EA010C17D41CF58E
:1009F000801F58BFBCF5801F00F106808B4218BFD6
:100A0000704708BF8242704707D713F5801F58BF51
:100A100011F5801F19D48B4270479B4270471CF51B
:100A2000801F08D5BCF5801FF7D5994218BF7047C5
:100A300008BF904270474FF4001C1CEB430F38BFB7
:100A40001CEB410F01D2994270470FB40CBC03BCA0
:100A5000FFF76BBF91EA030F10B581F000413FF53E
:100A600041AE83F0004300F009B8000010B591EAF0
:100A7000030F48BF83F000433FF534AE841A71EB97
:100A8000030C07D212198CF0004C43EB0C03001B33
:100A900061EB0C01DFF8A4E14FEA1154A4EB135C05
:100AA0001EEA430F18BF9EEA445F00F0B08023EABD
:100AB0006E03524221EA0451C3EB6E0338BF5B1E42
:100AC000DCF1200E25D322FA0CFE10EB0E0043FAC7
:100AD0000CFE41EB0E01CCF1200E03FA0EFE10EBE2
:100AE0000E0051F10001CCF1200E29D412FA0EF2C1
:100AF00001EB0451BDE8104058BF7047401C1CBFBB
:100B0000B2F1004F704700280CBF491C20F00100D3
:100B1000704712EB020E43EB030218BF4FF0010EB9
:100B20004EEA4202ACF1200CDCF11E0E54D943FA1D
:100B30000CFE10EB0E0051F1FF31CCF11E0ED5D59D
:100B40000EF1010E12FA0EFE404141EB010101EBE4
:100B5000445C5FEA5C5C10D910EBDE7001EB045181
:100B600038BFBEF1004FBDE8104018BF70470028E5
:100B70000CBF491C20F00100704730D24FEAD42C42
:100B800011F5001124F400641BD0B1FA81F20B3A84
:100B9000A41AA41ED2F12003914030FA03F31943A2
:100BA000904001EBCC71002C01EB0451BDE81040EA
:100BB000A8BF704701F1C0414FF0000001F00041B3
:100BC0007047B0FA80F310FA03F100D110BDE41AB7
:100BD000173C4805C90AE4E701EB045110BD491070
:100BE00001EB0451BDE810404FEA300002E04FF045
:100BF000000170474A0008BF0042F8D0B2F5001F5C
:100C000028BF704701F000414FF0000070479EEA96
:100C1000445F07D011EA5E0FBDE8104004BF002119
:100C200000207047BDE8104070B5FFF789FE00BF97
:100C300040DFF63E83F00041104670470000E0FFC1
:100C400043004FEAD30C4FEA3C0C43401FBF400720
:100C50000CF1605113F0FE4F70471CF0006F03D190
:100C600000200CF0004170470CF0004343EA507044
:100C700010B540EACC0000F086F900BF00000092F9
:100C80004FEA0001FFF7AABE4FF000414FF000000D
:100C9000A1F50021704700004FF47F0C1CEAD01230
:100CA0001EBF1CEAD11392EA0C0F93EA0C0F00F05E
:100CB000858090EA010F48BF42F4807240F4000C36
:100CC00041F400002CF07F4120F07F4000B58142CC
:100CD000A2EB03020FF2081CACEB504EC0F1000077
:100CE0009EF800E04FEA4E0E00FB0EFC38BF4900B4
:100CF0004FEA2C1C02F5FA020CFB0EF34FEACE1E53
:100D00004FEA112C4FEAC1210EEB635E42EB224207
:100D10000EFB0CFC4FEA1C5300FB03114FEA112C95
:100D20004FEA01310EFB0CFC4FEADC4C00FB0C11CE
:100D3000C14228BF09184CEB03335DF804EB10EBFC
:100D4000410143EBC250B2F57C0F38BF704729D543
:100D500012F0F00F1CBF00F1C04000F000407047DF
:100D6000008182838485868788898B8C8D8E8F9184
:100D70009293959697999A9C9D9FA0A2A3A5A7A8A8
:100D8000AAACAEB0B2B3B5B7B9BCBEC0C2C5C7C9D4
:100D9000CCCED1D4D7D9DCDFE2E6E9ECF0F3F7FA38
:100DA000FE0000004FEA400C0CF1807CBCF17E4F4D
:100DB00028BF7047B0F1C04000F02BB990EA010F96
:100DC0000CEAD11348BF42F48072624538BF6345D4
:100DD00007D213F47F0F16D080EA010000F0004024
:100DE000704710B500F0CFF8097EFC3E00F005B862
:100DF00080EA010000F00040704780EA010000F046
:100E0000004000F006B912F47F0F04BF024870479B
:100E100080EA010000F0FDB80000C07F41000B0E29
:100E2000D3F19E0208D950F400034FEA032323FABA
:100E300002F048BF4042704710B500F0A4F800BF70
:100E400049922480002070476FF0004282EA20001F
:100E50007047000010F0004148BF4042B0FA80F3F4
:100E600010FA03F2C3F19D030BD051EAC35101EB19
:100E70001220530638BF704700F1010008BF20F070
:100E8000010070474FF47F0C1CEAD0121EBF1CEA11
:100E9000D11392EA0C0F93EA0C0F00F0478090EA0E
:100EA000010F48BF42F480724FF0004C4CEA002022
:100EB0004CEA012102EB0302A0FB0113A2F50002A0
:100EC000002918BF43F001035B0028BF4FEA33033A
:100ED00042EB22425FEA132C4CEBC2502EBFBCEB1C
:100EE000436FB2F57C0F70474FEA036CBCF1004FC3
:100EF00008BF20F00100B2F57C0F38BF70470BD55A
:100F000082F0FF0212F5803FC8BF704700F1C04079
:100F1000D8BF00F00040704700F5000C5FEA4C0CB1
:100F200048BF7047B0F1C04000F073B890EA010FBD
:100F30000CEAD11348BF42F48072624538BF634562
:100F400004D280EA010000F00040704710B500F0C4
:100F50001AF800BF8900013E00F007B800F009B898
:100F60005FEA410C5FEA1C6C08D080EA010000F0E7
:100F700050B85FEA400C5FEA1C6CF6D14FF00040BD
:100F8000A0F5800070470EF1020E2EF0030E5EF801
:100F9000044B244204D44FEA4102B2F17F4F11D8EE
:100FA0004FEA4003B3F17F4F0CD80ED14FEAD07C0B
:100FB000B2F17F4F0CEB4C0C0CF1020C08BF4CEB68
:100FC000D17C04E04FF0080C01E04FEAD17C0CEB3F
:100FD0004C0324FA03F404F00704B4F1040C06D221
:100FE0000EEB840CBDE810404CF0010C6047DFE8CC
:100FF0000CF0070802024FF00040A0F5800010BD81
:101000000846420018BFD2F1807288BF00F000404D
:1010100010BDFF2141EAD050C00570472C100000E0
:0C10200000000010600200000801000049
:040000050000014DA9
:00000001FF
