:020000040000FA
:10000000600200104D010000550100005701000082
:10001000590100005B0100005D01000000000000CC
:100020000000000000000000000000005F01000070
:100030006101000000000000630100006501000094
:100040006701000067010000670100006701000010
:100050006701000067010000670100006701000000
:1000600067010000670100006701000067010000F0
:1000700067010000670100006701000067010000E0
:1000800067010000670100006701000067010000D0
:1000900067010000670100006701000067010000C0
:1000A00067010000670100006701000067010000B0
:1000B00067010000670100006701000067010000A0
:1000C00067010000670100006701000000F002F80E
:1000D00000F02CF80AA090E8000C82448344AAF1B6
:1000E0000107DA4501D100F021F8AFF2090EBAE8B4
:1000F0000F0013F0010F18BFFB1A43F0010318475C
:10010000EC010000FC010000002300240025002673
:10011000103A28BF78C1FBD8520728BF30C148BF6A
:100120000B6070471FB51FBD10B510BD00F04EF835
:100130001146FFF7F7FF00F0B9FA00F06CF803B4CE
:10014000FFF7F2FF03BC00F073F800000948804796
:1001500009480047FEE7FEE7FEE7FEE7FEE7FEE7A9
:10016000FEE7FEE7FEE7FEE704480549034A054BC4
:100170007047000001030000CD0000006000001087
:10018000600200106000001010B5431C02E010F87F
:10019000011B71B18107FAD14FF0013202C88C1AEC
:1001A0008C4314EAC211F9D0C01A0A0603D0C01E4B
:1001B00010BDC01A10BD0A0401D0801E10BD090276
:1001C000FCD0401E10BD704770477047754600F068
:1001D0002BF8AE4605006946534620F007008546D9
:1001E00018B020B5FFF7C0FFBDE820404FF0000673
:1001F0004FF000074FF000084FF0000B21F007010F
:10020000AC46ACE8C009ACE8C009ACE8C009ACE851
:10021000C0098D46704710B50446AFF300802046F4
:10022000BDE81040FFF78BBF00487047000000108A
:1002300001491820ABBEFEE72600020070472DE9F9
:10024000F04104462046FFF79FFF0746C02000F01C
:1002500045F9384600F074F9002608E014F8010B5F
:1002600000F0EEF8C5B2502000F0B4F9761C072E6D
:10027000F4DB002000F0E4F8C5B22846BDE8F081C8
:100280001049096841F480710E4AC43AC2F8C4109A
:100290000D49096841F040410B4A11601146496817
:1002A00041F03C0151600949096841F4B021074A15
:1002B00011600749096841F02001054A11601146A3
:1002C000C8607047C4C00F4000C0024000C0092091
:1002D0000000024010B5044603E014F8010B00F0E2
:1002E000B7F920780028F8D110BD0000EC06000016
:1002F000000000106002000008010000FFFFFFFF87
:1003000020204B4908604B48D0F8A00100F02000A5
:1003100030B100BF4648006800F040000028F9D026
:10032000032043499C39086000204249C1F8A801D4
:100330003F490C31086001203D49943908603E482E
:100340003C4984310860AA203A498C310860552024
:1003500008600120374980310860AA2035498C3176
:10036000086055203349C1F88C0000BF31488830FF
:10037000006800F080600028F8D003202D4980310B
:100380000860AA202B49C1F88C00552029498C31DE
:10039000086000BF27488830006800F04070B0F166
:1003A000407FF7D123202349A4310860AA202149A6
:1003B000C1F8AC0055201F49AC31086001201D492F
:1003C000A0310860AA201B49AC31086055201949AA
:1003D000C1F8AC0000BF1748A830006800F4806086
:1003E0000028F8D003201349A0310860AA20114941
:1003F000C1F8AC0055200F49AC31086000BF0D4872
:10040000A830006800F44070B0F5407FF7D10B4889
:100410000849C431086000200649C1F8C8010846EF
:10042000006820F4704040F480400860704700008D
:10043000A0C10F4000C00F4063000500DE87280404
:1004400010B504461E48846000BF1D48406800F097
:1004500080000028F9D01A48406800F0400030B110
:1004600018A0FFF737FF4FF4487000F0B3F81448B6
:10047000406800F0200030B114A0FFF72BFF4FF4CC
:10048000487000F0A7F80E48406800F0080030B14E
:1004900010A0FFF71FFF4FF4487000F09BF80848CA
:1004A000406800F0100030B106A0FFF713FF4FF4D2
:1004B000487000F08FF80248806880B210BD0000DC
:1004C00000000240434F4C4C49444500524F5652A5
:1004D00000000000534C41564500000010B5044692
:1004E0000F20164908740846C06940F40070C861BE
:1004F0000846806940F480708861084604750220CF
:1005000000F068F84FF480700C49C86108468069B3
:1005100040F4807088610F21084841742007000E64
:100520000649087500200861022000F053F80348CE
:10053000C06940F480700149C86110BD00C0092045
:100540002DE9F04399B004460025A9463CB9302076
:100550000DF80500681CC5B200200DF80500002C40
:1005600002DA64424FF0010910E00A2094FBF0F136
:1005700000FB1140C7B207F13000C2B22846691C27
:10058000CDB20DF800200A2094FBF0F4002CECD141
:10059000B9F1010F05D12D222846691CCDB20DF805
:1005A000002000222846691CCDB20DF800206846C4
:1005B000FFF7EAFD00F0FF08A8F1010604E01DF8CE
:1005C000060000F045F8761E002EF8DA19B0BDE8F6
:1005D000F08300000D49096841F002010B4AC43A5A
:1005E000C2F8C41046F2A7114FF04022D160022198
:1005F00051600121516000BF4FF040218968814264
:10060000FAD300214FF0402251607047C4C00F4020
:1006100010B50E48006840F47C700C490860022058
:10062000FFF75CFF2820FFF759FF0E20FFF756FF6A
:100630000620FFF753FF0120FFF750FF8020FFF750
:100640004DFF0A20FFF7C6FF10BD000000C00920C3
:1006500010B504460F20144908740846806940F418
:100660004070886104F0F00008750220FFF7B2FFC7
:100670004FF480700C49C8610846806940F480706E
:1006800088610F21084841742007000E064908754B
:10069000002008610220FFF79DFF0348C06940F475
:1006A00080700149C86110BD00C00920FFF728FE15
:1006B000FFF7AEFF0820FFF7E3FD00BF10E080204A
:1006C000FFF70CFF07A0FFF7BAFD04460120FFF774
:1006D00005FF2046FFF734FF4FF44870FFF77AFF1D
:0C06E000EDE700005072616E6A616C0072
:040000050000014DA9
:00000001FF
