:020000040000FA
:10000000800200106901000071010000730100000E
:100010007501000077010000790100000000000078
:100020000000000000000000000000007B01000054
:100030007D010000000000007F0100008101000040
:1000400083010000830100008301000083010000A0
:1000500083010000210200008301000083010000F1
:100060008301000083010000830100008301000080
:100070008301000083010000830100008301000070
:100080008301000083010000830100008301000060
:100090008301000083010000830100008301000050
:1000A0008301000083010000830100008301000040
:1000B0008301000083010000830100008301000030
:1000C00083010000830100008301000000F002F8BA
:1000D00000F03AF80AA090E8000C82448344AAF1A8
:1000E0000107DA4501D100F02FF8AFF2090EBAE8A6
:1000F0000F0013F0010F18BFFB1A43F0010318475C
:10010000D8010000F8010000103A24BF78C878C177
:10011000FAD8520724BF30C830C144BF04680C600D
:10012000704700000023002400250026103A28BF55
:1001300078C1FBD8520728BF30C148BF0B60704759
:100140001FB51FBD10B510BD00F02FF81146FFF709
:10015000F7FF00F0E1F900F04DF803B4FFF7F2FF0C
:1001600003BC00F055F800000948804709480047E3
:10017000FEE7FEE7FEE7FEE7FEE7FEE7FEE7FEE757
:10018000FEE7FEE704480549034A054B70470000B7
:1001900001030000CD00000080000010800200106C
:1001A00080000010704770477047754600F02CF8CB
:1001B000AE4605006946534620F00700854618B054
:1001C00020B5FFF7DFFFBDE820404FF000064FF0FD
:1001D00000074FF000084FF0000B21F00701AC467C
:1001E000ACE8C009ACE8C009ACE8C009ACE8C0099B
:1001F0008D46704710B50446AFF300802046BDE839
:100200001040FFF7AABF0000004870471C00001014
:1002100001491820ABBEFEE726000200704700002F
:1002200030B50B48806800F004010948027D0346A0
:100230001C78084B1868431C064D2B60064B1C5459
:1002400028460068082802D100202B46186030BDDF
:1002500000C00040140000100A00001010B5044651
:100260000F20164908740846C06940F40070C86140
:100270000846806940F48070886108460475022051
:1002800000F0DEF84FF480700C49C86108468069C0
:1002900040F4807088610F21084841742007000EE7
:1002A0000649087500200861022000F0C9F80348DB
:1002B000C06940F480700149C86110BD00C00920C8
:1002C00010B5044603E014F8010B00F0F7F82078AD
:1002D0000028F8D110BD0000E0050000000000106B
:1002E0001C00000008010000FC0500001C000010BC
:1002F000640200002401000000000000FFFFFFFF77
:1003000020204B4908604B48D0F8A00100F02000A5
:1003100030B100BF4648006800F040000028F9D026
:10032000032043499C39086000204249C1F8A801D4
:100330003F490C31086001203D49943908603E482E
:100340003C4984310860AA203A498C310860552024
:1003500008600120374980310860AA2035498C3176
:10036000086055203349C1F88C0000BF31488830FF
:10037000006800F080600028F8D003202D4980310B
:100380000860AA202B49C1F88C00552029498C31DE
:10039000086000BF27488830006800F04070B0F166
:1003A000407FF7D123202349A4310860AA202149A6
:1003B000C1F8AC0055201F49AC31086001201D492F
:1003C000A0310860AA201B49AC31086055201949AA
:1003D000C1F8AC0000BF1748A830006800F4806086
:1003E0000028F8D003201349A0310860AA20114941
:1003F000C1F8AC0055200F49AC31086000BF0D4872
:10040000A830006800F44070B0F5407FF7D10B4889
:100410000849C431086000200649C1F8C8010846EF
:10042000006820F4704040F480400860704700008D
:10043000A0C10F4000C00F4063000500DE87280404
:100440000D49096841F002010B4AC43AC2F8C410D0
:1004500046F2A7114FF04022D160022151600121E4
:10046000516000BF4FF0402189688142FAD30021DA
:100470004FF0402251607047C4C00F4010B50E4885
:10048000006840F47C700C4908600220FFF7E6FE2B
:100490002820FFF7E3FE0E20FFF7E0FE0620FFF71F
:1004A000DDFE0120FFF7DAFE8020FFF7D7FE0A20ED
:1004B000FFF7C6FF10BD000000C0092010B50446BC
:1004C0000F20144908740846806940F44070886120
:1004D00004F0F00008750220FFF7B2FF4FF48070BF
:1004E0000C49C8610846806940F4807088610F211A
:1004F000084841742007000E06490875002008616D
:100500000220FFF79DFF0348C06940F48070014955
:10051000C86110BD00C00920FFF7F2FEFFF7AEFF73
:100520002848006840F008002649C439C1F8C400D2
:100530002548006840F05000234908608320234983
:1005400008730A200870002008710846007A40F0FD
:1005500007000872084690F8280040F0E50081F88E
:1005600028000846007B20F0800008730846406899
:1005700040F0010048600520002809DB00F01F0260
:10058000012191404209920002F1E022C2F80011DB
:1005900000BF15E00120FFF761FE0DA0FFF790FE00
:1005A0000D48006840B1002404E00C49085DFFF7E5
:1005B00085FF641C082CF8DB4FF47A70FFF740FFCE
:1005C000E8E70000C4C00F4000C0024000C0004087
:1005D0005748494C45000000140000100A00001064
:1005E0000000000000000000010100000000000009
:0C05F000000000000000000000000000FF
:04000005000001698D
:00000001FF
