:020000040000FA
:10000000600200104D010000550100005701000082
:10001000590100005B0100005D01000000000000CC
:100020000000000000000000000000005F01000070
:100030006101000000000000630100006501000094
:100040006701000067010000670100006701000010
:100050006701000067010000670100006701000000
:1000600067010000670100006701000067010000F0
:1000700067010000670100006701000067010000E0
:1000800067010000670100006701000067010000D0
:1000900067010000670100006701000067010000C0
:1000A00067010000670100006701000067010000B0
:1000B00067010000670100006701000067010000A0
:1000C00067010000670100006701000000F002F80E
:1000D00000F02CF80AA090E8000C82448344AAF1B6
:1000E0000107DA4501D100F021F8AFF2090EBAE8B4
:1000F0000F0013F0010F18BFFB1A43F0010318475C
:100100009C040000AC04000000230024002500260D
:10011000103A28BF78C1FBD8520728BF30C148BF6A
:100120000B6070471FB51FBD10B510BD00F02FF854
:100130001146FFF7F7FF00F0E9F900F04DF803B4BE
:10014000FFF7F2FF03BC00F055F8000009488047B4
:1001500009480047FEE7FEE7FEE7FEE7FEE7FEE7A9
:10016000FEE7FEE7FEE7FEE704480549034A054BC4
:100170007047000001030000CD0000006000001087
:1001800060020010600000107047704770477546AD
:1001900000F02CF8AE4605006946534620F00700F3
:1001A000854618B020B5FFF7DFFFBDE820404FF0CF
:1001B00000064FF000074FF000084FF0000B21F051
:1001C0000701AC46ACE8C009ACE8C009ACE8C0091E
:1001D000ACE8C0098D46704710B50446AFF3008007
:1001E0002046BDE81040FFF7AABF00000048704756
:1001F0000000001001491820ABBEFEE726000200F7
:10020000704700B502460021002300BF00F06AF8E5
:100210005054535C481CC1B20D2B01D06E29F5D14E
:10022000481CC1B20020505400BD000010B5044667
:100230000F20164908740846C06940F40070C86170
:100240000846806940F48070886108460475022081
:1002500000F02AF84FF480700C49C86108468069A4
:1002600040F4807088610F21084841742007000E17
:100270000649087500200861022000F015F80348BF
:10028000C06940F480700149C86110BD00C00920F8
:1002900010B5044603E014F8010B00F009F92078CA
:1002A0000028F8D110BD00000D49096841F0020195
:1002B0000B4AC43AC2F8C41046F2A7114FF04022CC
:1002C000D160022151600121516000BF4FF04021F7
:1002D00089688142FAD300214FF040225160704773
:1002E000C4C00F4000BF0448007D00F0010000289A
:1002F000F9D001480078704700C00040FFFFFFFFC1
:1003000020204B4908604B48D0F8A00100F02000A5
:1003100030B100BF4648006800F040000028F9D026
:10032000032043499C39086000204249C1F8A801D4
:100330003F490C31086001203D49943908603E482E
:100340003C4984310860AA203A498C310860552024
:1003500008600120374980310860AA2035498C3176
:10036000086055203349C1F88C0000BF31488830FF
:10037000006800F080600028F8D003202D4980310B
:100380000860AA202B49C1F88C00552029498C31DE
:10039000086000BF27488830006800F04070B0F166
:1003A000407FF7D123202349A4310860AA202149A6
:1003B000C1F8AC0055201F49AC31086001201D492F
:1003C000A0310860AA201B49AC31086055201949AA
:1003D000C1F8AC0000BF1748A830006800F4806086
:1003E0000028F8D003201349A0310860AA20114941
:1003F000C1F8AC0055200F49AC31086000BF0D4872
:10040000A830006800F44070B0F5407FF7D10B4889
:100410000849C431086000200649C1F8C8010846EF
:10042000006820F4704040F480400860704700008D
:10043000A0C10F4000C00F4063000500DE87280404
:1004400000B5024603E012F8010B00F005F8107841
:100450000028F8D100BD000000BF0449097D01F06B
:1004600020010029F9D001490870704700C0004000
:1004700010B50E48006840F47C700C4908600220FA
:10048000FFF7D4FE2820FFF7D1FE0E20FFF7CEFEA7
:100490000620FFF7CBFE0120FFF7C8FE8020FFF704
:1004A000C5FE0A20FFF700FF10BD000000C00920B4
:1004B00010B504460F20144908740846806940F4BA
:1004C0004070886104F0F00008750220FFF7ECFE30
:1004D0004FF480700C49C8610846806940F4807010
:1004E00088610F21084841742007000E06490875ED
:1004F000002008610220FFF7D7FE0348C06940F4DE
:1005000080700149C86110BD00C0092086B0FFF7A6
:10051000F7FEFFF7ADFF1A48006840F008001849E1
:10052000C439C1F8C4001748006840F050001549AC
:1005300008608320144908730A200870002008719D
:100540000846007A40F007000872084690F8280034
:1005500040F0E50081F828000846007B20F080008C
:1005600008730CE009A0FFF76BFF01A8FFF749FE35
:1005700001A8FFF78DFE4FF44870FFF795FEF1E7F5
:10058000C4C00F4000C0024000C0004048656C6C11
:100590006F20554152540D0A00000000AC050000C8
:0C05A000000000106002000008010000D4
:040000050000014DA9
:00000001FF
